{
  "contractName": "OnBoarding",
  "abi": [
    {
      "constant": true,
      "inputs": [
        {
          "name": "",
          "type": "bytes32"
        }
      ],
      "name": "users",
      "outputs": [
        {
          "name": "",
          "type": "address"
        }
      ],
      "payable": false,
      "stateMutability": "view",
      "type": "function"
    },
    {
      "inputs": [
        {
          "name": "_owner",
          "type": "address"
        }
      ],
      "payable": false,
      "stateMutability": "nonpayable",
      "type": "constructor"
    },
    {
      "constant": false,
      "inputs": [
        {
          "name": "userId",
          "type": "bytes32"
        },
        {
          "name": "userKey",
          "type": "address"
        }
      ],
      "name": "createUser",
      "outputs": [],
      "payable": false,
      "stateMutability": "nonpayable",
      "type": "function"
    }
  ],
  "bytecode": "0x608060405234801561001057600080fd5b5060405160208061218c8339810180604052810190808051906020019092919050505080600160006101000a81548173ffffffffffffffffffffffffffffffffffffffff021916908373ffffffffffffffffffffffffffffffffffffffff16021790555050612108806100846000396000f30060806040526004361061004c576000357c0100000000000000000000000000000000000000000000000000000000900463ffffffff16806316db95ec14610051578063cea6ab98146100a2575b600080fd5b34801561005d57600080fd5b506100a06004803603810190808035600019169060200190929190803573ffffffffffffffffffffffffffffffffffffffff169060200190929190505050610113565b005b3480156100ae57600080fd5b506100d160048036038101908080356000191690602001909291905050506102c2565b604051808273ffffffffffffffffffffffffffffffffffffffff1673ffffffffffffffffffffffffffffffffffffffff16815260200191505060405180910390f35b60003373ffffffffffffffffffffffffffffffffffffffff16600160009054906101000a900473ffffffffffffffffffffffffffffffffffffffff1673ffffffffffffffffffffffffffffffffffffffff1614151561017157600080fd5b6000806000856000191660001916815260200190815260200160002060009054906101000a900473ffffffffffffffffffffffffffffffffffffffff1673ffffffffffffffffffffffffffffffffffffffff161415156101d057600080fd5b82826101da6102f5565b8083600019166000191681526020018273ffffffffffffffffffffffffffffffffffffffff1673ffffffffffffffffffffffffffffffffffffffff16815260200192505050604051809103906000f08015801561023b573d6000803e3d6000fd5b50905060008173ffffffffffffffffffffffffffffffffffffffff161415151561026457600080fd5b80600080856000191660001916815260200190815260200160002060006101000a81548173ffffffffffffffffffffffffffffffffffffffff021916908373ffffffffffffffffffffffffffffffffffffffff160217905550505050565b60006020528060005260406000206000915054906101000a900473ffffffffffffffffffffffffffffffffffffffff1681565b604051611dd780610306833901905600608060405234801561001057600080fd5b50604051604080611dd7833981018060405281019080805190602001909291908051906020019092919050505080600160006101000a81548173ffffffffffffffffffffffffffffffffffffffff021916908373ffffffffffffffffffffffffffffffffffffffff160217905550816000816000191690555033600460006101000a81548173ffffffffffffffffffffffffffffffffffffffff021916908373ffffffffffffffffffffffffffffffffffffffff1602179055506103e86002819055505050611cf3806100e46000396000f3006080604052600436106100af576000357c0100000000000000000000000000000000000000000000000000000000900463ffffffff1680633822fdc7146100b457806358975919146100ef578063837c3c7714610122578063853649001461014d5780638fbec6ea146101a4578063b07cfd34146101f9578063b3b36bb3146102e8578063c44ca5ef14610313578063c52164c6146103db578063ea0f166814610406578063f4ff7d2d14610459575b600080fd5b3480156100c057600080fd5b506100ed6004803603810190808035600019169060200190929190803590602001909291905050506104a2565b005b3480156100fb57600080fd5b506101046106d9565b60405180826000191660001916815260200191505060405180910390f35b34801561012e57600080fd5b506101376106df565b6040518082815260200191505060405180910390f35b34801561015957600080fd5b5061018a600480360381019080803560001916906020019092919080356000191690602001909291905050506106e5565b604051808215151515815260200191505060405180910390f35b3480156101b057600080fd5b506101e3600480360381019080803590602001909291908035906020019092919080359060200190929190505050610a7e565b6040518082815260200191505060405180910390f35b34801561020557600080fd5b50610232600480360381019080803560001916906020019092919080359060200190929190505050610aa2565b604051808a73ffffffffffffffffffffffffffffffffffffffff1673ffffffffffffffffffffffffffffffffffffffff16815260200189600019166000191681526020018873ffffffffffffffffffffffffffffffffffffffff1673ffffffffffffffffffffffffffffffffffffffff1681526020018760001916600019168152602001868152602001858152602001848152602001838152602001828152602001995050505050505050505060405180910390f35b3480156102f457600080fd5b506102fd610dd1565b6040518082815260200191505060405180910390f35b34801561031f57600080fd5b506103d96004803603810190808035906020019092919080356000191690602001909291908035906020019092919080359060200190929190803590602001909291908035600019169060200190929190803573ffffffffffffffffffffffffffffffffffffffff169060200190929190803590602001909291908035600019169060200190929190803560ff16906020019092919080356000191690602001909291908035600019169060200190929190505050610dda565b005b3480156103e757600080fd5b506103f0611106565b6040518082815260200191505060405180910390f35b34801561041257600080fd5b5061043f60048036038101908080356000191690602001909291908035906020019092919050505061110c565b604051808215151515815260200191505060405180910390f35b34801561046557600080fd5b506104886004803603810190808035600019169060200190929190505050611257565b604051808215151515815260200191505060405180910390f35b60008060008060066000876000191660001916815260200190815260200160002093508360020160009054906101000a900473ffffffffffffffffffffffffffffffffffffffff1692508291508173ffffffffffffffffffffffffffffffffffffffff1663ea0f166887876040518363ffffffff167c010000000000000000000000000000000000000000000000000000000002815260040180836000191660001916815260200182815260200192505050602060405180830381600087803b15801561056e57600080fd5b505af1158015610582573d6000803e3d6000fd5b505050506040513d602081101561059857600080fd5b810190808051906020019092919050505015156105b457600080fd5b83600801548510156105d457848460080154038460080181905550610661565b836008015485039050600084600801819055506105f086611257565b507f3fd1524f3de247c472612e3561185a5b27dc665c80d60675e16285097db34a888685600101548660030154846040518085600019166000191681526020018460001916600019168152602001836000191660001916815260200182815260200194505050505060405180910390a15b85600019167f301275658fc3bdcb3f50e7d6d53a6f57296ab49bc3e2e9953f6c3d0e08bdccb885600101548660030154888860080154604051808560001916600019168152602001846000191660001916815260200183815260200182815260200194505050505060405180910390a2505050505050565b60005481565b60035481565b60008060008060008060006106fa3389611880565b151561070557600080fd5b3373ffffffffffffffffffffffffffffffffffffffff1663b07cfd348a60016040518363ffffffff167c01000000000000000000000000000000000000000000000000000000000281526004018083600019166000191681526020018281526020019250505061012060405180830381600087803b15801561078657600080fd5b505af115801561079a573d6000803e3d6000fd5b505050506040513d6101208110156107b157600080fd5b810190808051906020019092919080519060200190929190805190602001909291908051906020019092919080519060200190929190805190602001909291908051906020019092919080519060200190929190805190602001909291905050509091929394959697509091929394959650909192939450809650819750829850839950849a50859b50505050505050610140604051908101604052803073ffffffffffffffffffffffffffffffffffffffff1681526020016000546000191681526020013373ffffffffffffffffffffffffffffffffffffffff1681526020018960001916815260200186815260200185815260200142815260200184815260200161016d60648087868b02028115156108c857fe5b0402028701815260200182815250600660008b6000191660001916815260200190815260200160002060008201518160000160006101000a81548173ffffffffffffffffffffffffffffffffffffffff021916908373ffffffffffffffffffffffffffffffffffffffff1602179055506020820151816001019060001916905560408201518160020160006101000a81548173ffffffffffffffffffffffffffffffffffffffff021916908373ffffffffffffffffffffffffffffffffffffffff160217905550606082015181600301906000191690556080820151816004015560a0820151816005015560c0820151816006015560e08201518160070155610100820151816008015561012082015181600901559050506001600354016003819055506109f86001868b61199e565b1515610a0357600080fd5b6000546000191689600019167fdceffa4df65dbdd1944f07780a4f9af2540c9914c41fbb2145b4bb1afb52b7ad8a888888876040518086600019166000191681526020018581526020018481526020018381526020018281526020019550505050505060405180910390a36001965050505050505092915050565b600061016d6064808486880202811515610a9457fe5b040202840190509392505050565b6000806000806000806000806000610ab8611c41565b60018b1415610c3d57600560008d6000191660001916815260200190815260200160002061014060405190810160405290816000820160009054906101000a900473ffffffffffffffffffffffffffffffffffffffff1673ffffffffffffffffffffffffffffffffffffffff1673ffffffffffffffffffffffffffffffffffffffff1681526020016001820154600019166000191681526020016002820160009054906101000a900473ffffffffffffffffffffffffffffffffffffffff1673ffffffffffffffffffffffffffffffffffffffff1673ffffffffffffffffffffffffffffffffffffffff16815260200160038201546000191660001916815260200160048201548152602001600582015481526020016006820154815260200160078201548152602001600882015481526020016009820154815250509050806000015181602001518260400151836060015184608001518560a001518660e00151876101000151886101200151995099509950995099509950995099509950610dc3565b60028b1415610dc257600660008d6000191660001916815260200190815260200160002061014060405190810160405290816000820160009054906101000a900473ffffffffffffffffffffffffffffffffffffffff1673ffffffffffffffffffffffffffffffffffffffff1673ffffffffffffffffffffffffffffffffffffffff1681526020016001820154600019166000191681526020016002820160009054906101000a900473ffffffffffffffffffffffffffffffffffffffff1673ffffffffffffffffffffffffffffffffffffffff1673ffffffffffffffffffffffffffffffffffffffff16815260200160038201546000191660001916815260200160048201548152602001600582015481526020016006820154815260200160078201548152602001600882015481526020016009820154815250509050806000015181602001518260400151836060015184608001518560a001518660e00151876101000151886101200151995099509950995099509950995099509950610dc3565b5b509295985092959850929598565b60006001905090565b610de2611c41565b610dec8789611880565b1515610df757600080fd5b610e01878e611ac2565b1515610e0c57600080fd5b610e19858585858b611b7f565b1515610e2457600080fd5b8673ffffffffffffffffffffffffffffffffffffffff1663853649008d6000546040518363ffffffff167c0100000000000000000000000000000000000000000000000000000000028152600401808360001916600019168152602001826000191660001916815260200192505050602060405180830381600087803b158015610ead57600080fd5b505af1158015610ec1573d6000803e3d6000fd5b505050506040513d6020811015610ed757600080fd5b81019080805190602001909291905050501515610ef357600080fd5b610140604051908101604052808873ffffffffffffffffffffffffffffffffffffffff168152602001896000191681526020013073ffffffffffffffffffffffffffffffffffffffff1681526020016000546000191681526020018781526020018b81526020014281526020018a8152602001610f71888e8d610a7e565b81526020018c815250905080600560008e6000191660001916815260200190815260200160002060008201518160000160006101000a81548173ffffffffffffffffffffffffffffffffffffffff021916908373ffffffffffffffffffffffffffffffffffffffff1602179055506020820151816001019060001916905560408201518160020160006101000a81548173ffffffffffffffffffffffffffffffffffffffff021916908373ffffffffffffffffffffffffffffffffffffffff160217905550606082015181600301906000191690556080820151816004015560a0820151816005015560c0820151816006015560e0820151816007015561010082015181600801556101208201518160090155905050600054600019168c600019167fced02ec1150a8be93bb3f47b6007268375c8fcba00453c48d1a28eb6035516b68a898e8e8761012001516040518086600019166000191681526020018581526020018481526020018381526020018281526020019550505050505060405180910390a350505050505050505050505050565b60025481565b60008060006005600086600019166000191681526020019081526020016000209150816008015484101561114e578382600801540382600801819055506111db565b8160080154840390506000826008018190555061116a85611257565b507f3fd1524f3de247c472612e3561185a5b27dc665c80d60675e16285097db34a888583600101548460030154846040518085600019166000191681526020018460001916600019168152602001836000191660001916815260200182815260200194505050505060405180910390a15b84600019167f301275658fc3bdcb3f50e7d6d53a6f57296ab49bc3e2e9953f6c3d0e08bdccb883600101548460030154878660080154604051808560001916600019168152602001846000191660001916815260200183815260200182815260200194505050505060405180910390a260019250505092915050565b6000611261611c41565b600060066000856000191660001916815260200190815260200160002060000160009054906101000a900473ffffffffffffffffffffffffffffffffffffffff1673ffffffffffffffffffffffffffffffffffffffff161480156113195750600060056000856000191660001916815260200190815260200160002060000160009054906101000a900473ffffffffffffffffffffffffffffffffffffffff1673ffffffffffffffffffffffffffffffffffffffff16145b15611327576001915061187a565b60066000846000191660001916815260200190815260200160002060020160009054906101000a900473ffffffffffffffffffffffffffffffffffffffff1673ffffffffffffffffffffffffffffffffffffffff163373ffffffffffffffffffffffffffffffffffffffff1614156116195760066000846000191660001916815260200190815260200160002061014060405190810160405290816000820160009054906101000a900473ffffffffffffffffffffffffffffffffffffffff1673ffffffffffffffffffffffffffffffffffffffff1673ffffffffffffffffffffffffffffffffffffffff1681526020016001820154600019166000191681526020016002820160009054906101000a900473ffffffffffffffffffffffffffffffffffffffff1673ffffffffffffffffffffffffffffffffffffffff1673ffffffffffffffffffffffffffffffffffffffff168152602001600382015460001916600019168152602001600482015481526020016005820154815260200160068201548152602001600782015481526020016008820154815260200160098201548152505090506114df600282608001518561199e565b15156114ea57600080fd5b600660008460001916600019168152602001908152602001600020600080820160006101000a81549073ffffffffffffffffffffffffffffffffffffffff021916905560018201600090556002820160006101000a81549073ffffffffffffffffffffffffffffffffffffffff02191690556003820160009055600482016000905560058201600090556006820160009055600782016000905560088201600090556009820160009055505080606001516000191681602001516000191684600019167feafdacedc7b49072ee7f0797f180423ca96c45f73e9d7fe275dfb6680a560d9533604051808273ffffffffffffffffffffffffffffffffffffffff1673ffffffffffffffffffffffffffffffffffffffff16815260200191505060405180910390a46001915061187a565b60056000846000191660001916815260200190815260200160002061014060405190810160405290816000820160009054906101000a900473ffffffffffffffffffffffffffffffffffffffff1673ffffffffffffffffffffffffffffffffffffffff1673ffffffffffffffffffffffffffffffffffffffff1681526020016001820154600019166000191681526020016002820160009054906101000a900473ffffffffffffffffffffffffffffffffffffffff1673ffffffffffffffffffffffffffffffffffffffff1673ffffffffffffffffffffffffffffffffffffffff16815260200160038201546000191660001916815260200160048201548152602001600582015481526020016006820154815260200160078201548152602001600882015481526020016009820154815250509050600560008460001916600019168152602001908152602001600020600080820160006101000a81549073ffffffffffffffffffffffffffffffffffffffff021916905560018201600090556002820160006101000a81549073ffffffffffffffffffffffffffffffffffffffff02191690556003820160009055600482016000905560058201600090556006820160009055600782016000905560088201600090556009820160009055505080606001516000191681602001516000191684600019167feafdacedc7b49072ee7f0797f180423ca96c45f73e9d7fe275dfb6680a560d9533604051808273ffffffffffffffffffffffffffffffffffffffff1673ffffffffffffffffffffffffffffffffffffffff16815260200191505060405180910390a4600191505b50919050565b600080600460009054906101000a900473ffffffffffffffffffffffffffffffffffffffff1690508373ffffffffffffffffffffffffffffffffffffffff168173ffffffffffffffffffffffffffffffffffffffff1663cea6ab98856040518263ffffffff167c0100000000000000000000000000000000000000000000000000000000028152600401808260001916600019168152602001915050602060405180830381600087803b15801561193657600080fd5b505af115801561194a573d6000803e3d6000fd5b505050506040513d602081101561196057600080fd5b810190808051906020019092919050505073ffffffffffffffffffffffffffffffffffffffff1614151561199357600080fd5b600191505092915050565b6000806001851415611a285760025490506005600254036002819055507fbc7e2484068c49ef33baa89dfa5f72dc0ea66ee60ff4ce6e088ee7f5565816e6836000546005600254604051808560001916600019168152602001846000191660001916815260200183815260200182815260200194505050505060405180910390a160019150611aba565b6002851415611aaf576002549050600a600254016002819055507fbc7e2484068c49ef33baa89dfa5f72dc0ea66ee60ff4ce6e088ee7f5565816e683600054600a600254604051808560001916600019168152602001846000191660001916815260200183815260200182815260200194505050505060405180910390a160019150611aba565b60001515611ab957fe5b5b509392505050565b600080839050828173ffffffffffffffffffffffffffffffffffffffff1663837c3c776040518163ffffffff167c0100000000000000000000000000000000000000000000000000000000028152600401602060405180830381600087803b158015611b2d57600080fd5b505af1158015611b41573d6000803e3d6000fd5b505050506040513d6020811015611b5757600080fd5b8101908080519060200190929190505050141515611b7457600080fd5b600191505092915050565b6000606060006040805190810160405280601c81526020017f19457468657265756d205369676e6564204d6573736167653a0a363400000000815250915081886040518083805190602001908083835b602083101515611bf45780518252602082019150602081019050602083039250611bcf565b6001836020036101000a0380198251168184511680821785525050505050509050018260001916600019168152602001925050506040518091039020905060019250505095945050505050565b61014060405190810160405280600073ffffffffffffffffffffffffffffffffffffffff16815260200160008019168152602001600073ffffffffffffffffffffffffffffffffffffffff1681526020016000801916815260200160008152602001600081526020016000815260200160008152602001600081526020016000815250905600a165627a7a7230582002a90dbec0d001b045797d8c365be9f9a00366da32a07ef7a6943ee1be95310d0029a165627a7a723058207d221425c8037e9bd2466fcb41e94669a720f3eaf18867adf2872eb86afc2ad80029",
  "source": "pragma solidity ^0.4.23;\n\nimport \"./User.sol\";\n\ncontract OnBoarding {\n    mapping(bytes32=>address) public users;\n    address owner;\n    \n    modifier onlyOwner {\n        require(owner == msg.sender);\n        _;\n    }\n    \n    constructor(address _owner) public {\n        owner = _owner;\n    }\n    \n    function createUser(bytes32 userId, address userKey) public onlyOwner {\n        require(users[userId] == 0x00);\n        address user = new User(userId, userKey);\n        require(user != 0x00);\n        users[userId] = user;\n    }\n}",
  "sourcePath": "/Users/prateekyammanuru/work/prev work/hackathon/jio/thanos/blockchain/contracts/OnBoarding.sol",
  "compiler": {
    "name": "solc",
    "version": "0.4.23+commit.124ca40d.Emscripten.clang"
  },
  "schemaVersion": "3.0.1",
  "updatedAt": "2019-03-03T15:50:06.110Z",
  "devdoc": {
    "methods": {}
  },
  "userdoc": {
    "methods": {}
  }
}